:100000000A128A11FC2F00308A000408840A820731
:10001000003447345534503454344134003441347E
:0A0020005234593441344E34003498
:100ED0000A128A11D6270A128A110A128A110028C8
:100EE000F300730883120313870008108810081595
:100EF0000230F2004530F100A930F000F00B7E2FF7
:100F0000F10B7E2FF20B7E2F852F83120313081116
:100F1000080038300A128A1170270A128A11063026
:100F20000A128A1170270A128A110C300A128A11C9
:100F300070270A128A1101300A128A1170270A12C8
:100F40008A110800F3007308831203138700081442
:100F5000881008150230F2004530F100A930F00089
:100F6000F00BB02FF10BB02FF20BB02FB72F831275
:100F7000031308110800F500F601CF2F7608750756
:100F800084000A128A1103200A128A110A128A1195
:100F9000A2270A128A110130FF007F08F6077408A1
:100FA0007602031CD42FD52FBE2F080083160313FF
:100FB000870188010A128A1189270A128A110530CD
:100FC000F40007300A128A11BB270A128A118130F5
:100FD0000A128A1170270A128A11C1300A128A1164
:100FE00070270A128A110530F40001300A128A11A2
:100FF000BB270A128A11080083010A128A11682F7E
:02400E00FA3F77
:00000001FF
